{
  "contractName": "Califications",
  "abi": [
    {
      "anonymous": false,
      "inputs": [
        {
          "indexed": true,
          "internalType": "address",
          "name": "previousOwner",
          "type": "address"
        },
        {
          "indexed": true,
          "internalType": "address",
          "name": "newOwner",
          "type": "address"
        }
      ],
      "name": "OwnershipTransferred",
      "type": "event"
    },
    {
      "inputs": [
        {
          "internalType": "uint256",
          "name": "",
          "type": "uint256"
        }
      ],
      "name": "califications",
      "outputs": [
        {
          "internalType": "uint256",
          "name": "id_shop",
          "type": "uint256"
        },
        {
          "internalType": "uint8",
          "name": "status",
          "type": "uint8"
        },
        {
          "internalType": "string",
          "name": "description",
          "type": "string"
        },
        {
          "internalType": "uint256",
          "name": "created_at",
          "type": "uint256"
        }
      ],
      "stateMutability": "view",
      "type": "function",
      "constant": true
    },
    {
      "inputs": [],
      "name": "isOwner",
      "outputs": [
        {
          "internalType": "bool",
          "name": "",
          "type": "bool"
        }
      ],
      "stateMutability": "view",
      "type": "function",
      "constant": true
    },
    {
      "inputs": [],
      "name": "owner",
      "outputs": [
        {
          "internalType": "address",
          "name": "",
          "type": "address"
        }
      ],
      "stateMutability": "view",
      "type": "function",
      "constant": true
    },
    {
      "inputs": [],
      "name": "renounceOwnership",
      "outputs": [],
      "stateMutability": "nonpayable",
      "type": "function"
    },
    {
      "inputs": [
        {
          "internalType": "uint256",
          "name": "",
          "type": "uint256"
        }
      ],
      "name": "shops",
      "outputs": [
        {
          "internalType": "uint256",
          "name": "id",
          "type": "uint256"
        },
        {
          "internalType": "string",
          "name": "name",
          "type": "string"
        },
        {
          "internalType": "string",
          "name": "description",
          "type": "string"
        },
        {
          "internalType": "string",
          "name": "social",
          "type": "string"
        },
        {
          "internalType": "string",
          "name": "phone",
          "type": "string"
        }
      ],
      "stateMutability": "view",
      "type": "function",
      "constant": true
    },
    {
      "inputs": [
        {
          "internalType": "address",
          "name": "newOwner",
          "type": "address"
        }
      ],
      "name": "transferOwnership",
      "outputs": [],
      "stateMutability": "nonpayable",
      "type": "function"
    },
    {
      "inputs": [],
      "name": "getCalifications",
      "outputs": [
        {
          "components": [
            {
              "internalType": "uint256",
              "name": "id_shop",
              "type": "uint256"
            },
            {
              "internalType": "uint8",
              "name": "status",
              "type": "uint8"
            },
            {
              "internalType": "string",
              "name": "description",
              "type": "string"
            },
            {
              "internalType": "uint256",
              "name": "created_at",
              "type": "uint256"
            }
          ],
          "internalType": "struct Califications.Calification[]",
          "name": "",
          "type": "tuple[]"
        }
      ],
      "stateMutability": "view",
      "type": "function",
      "constant": true
    },
    {
      "inputs": [
        {
          "internalType": "uint256",
          "name": "_id_shop",
          "type": "uint256"
        },
        {
          "internalType": "uint8",
          "name": "_status",
          "type": "uint8"
        },
        {
          "internalType": "string",
          "name": "_description",
          "type": "string"
        }
      ],
      "name": "createCalification",
      "outputs": [],
      "stateMutability": "nonpayable",
      "type": "function"
    },
    {
      "inputs": [
        {
          "internalType": "uint256",
          "name": "_id",
          "type": "uint256"
        }
      ],
      "name": "getCalificationsByShop",
      "outputs": [
        {
          "components": [
            {
              "internalType": "uint256",
              "name": "id_shop",
              "type": "uint256"
            },
            {
              "internalType": "uint8",
              "name": "status",
              "type": "uint8"
            },
            {
              "internalType": "string",
              "name": "description",
              "type": "string"
            },
            {
              "internalType": "uint256",
              "name": "created_at",
              "type": "uint256"
            }
          ],
          "internalType": "struct Califications.Calification[]",
          "name": "",
          "type": "tuple[]"
        }
      ],
      "stateMutability": "view",
      "type": "function",
      "constant": true
    }
  ],
  "bytecode": "0x608060405234801561001057600080fd5b50336000806101000a81548173ffffffffffffffffffffffffffffffffffffffff021916908373ffffffffffffffffffffffffffffffffffffffff16021790555060008054906101000a900473ffffffffffffffffffffffffffffffffffffffff1673ffffffffffffffffffffffffffffffffffffffff16600073ffffffffffffffffffffffffffffffffffffffff167f8be0079c531659141344cd1fd0a4f28419497f9722a3daafe3b4186f6b6457e060405160405180910390a3611384806100db6000396000f3fe608060405234801561001057600080fd5b50600436106100935760003560e01c8063715018a611610066578063715018a61461014d5780638da5cb5b146101575780638f32d59b14610175578063f2fde38b14610193578063fb955ee4146101af57610093565b8063391ed14b146100985780634e06fdad146100cb57806369d3a0f2146100e9578063713aca7414610119575b600080fd5b6100b260048036038101906100ad9190610c32565b6101cb565b6040516100c29493929190610d23565b60405180910390f35b6100d36102a0565b6040516100e09190610efc565b60405180910390f35b61010360048036038101906100fe9190610c32565b6103c2565b6040516101109190610efc565b60405180910390f35b610133600480360381019061012e9190610c32565b610599565b604051610144959493929190610f1e565b60405180910390f35b6101556107ff565b005b61015f6108ce565b60405161016c9190610fce565b60405180910390f35b61017d6108f7565b60405161018a9190611004565b60405180910390f35b6101ad60048036038101906101a8919061104b565b61094e565b005b6101c960048036038101906101c491906111d9565b61096b565b005b600181815481106101db57600080fd5b90600052602060002090600402016000915090508060000154908060010160009054906101000a900460ff169080600201805461021790611277565b80601f016020809104026020016040519081016040528092919081815260200182805461024390611277565b80156102905780601f1061026557610100808354040283529160200191610290565b820191906000526020600020905b81548152906001019060200180831161027357829003601f168201915b5050505050908060030154905084565b60606001805480602002602001604051908101604052809291908181526020016000905b828210156103b95783829060005260206000209060040201604051806080016040529081600082015481526020016001820160009054906101000a900460ff1660ff1660ff16815260200160028201805461031e90611277565b80601f016020809104026020016040519081016040528092919081815260200182805461034a90611277565b80156103975780601f1061036c57610100808354040283529160200191610397565b820191906000526020600020905b81548152906001019060200180831161037a57829003601f168201915b50505050508152602001600382015481525050815260200190600101906102c4565b50505050905090565b6060600060018054905067ffffffffffffffff8111156103e5576103e46110ae565b5b60405190808252806020026020018201604052801561041e57816020015b61040b610b1a565b8152602001906001900390816104035790505b5090506000805b60018054905081101561058e5760018181548110610446576104456112a8565b5b906000526020600020906004020160000154850361057b5760018181548110610472576104716112a8565b5b9060005260206000209060040201604051806080016040529081600082015481526020016001820160009054906101000a900460ff1660ff1660ff1681526020016002820180546104c290611277565b80601f01602080910402602001604051908101604052809291908181526020018280546104ee90611277565b801561053b5780601f106105105761010080835404028352916020019161053b565b820191906000526020600020905b81548152906001019060200180831161051e57829003601f168201915b50505050508152602001600382015481525050838381518110610561576105606112a8565b5b6020026020010181905250818061057790611306565b9250505b808061058690611306565b915050610425565b508192505050919050565b600281815481106105a957600080fd5b90600052602060002090600502016000915090508060000154908060010180546105d290611277565b80601f01602080910402602001604051908101604052809291908181526020018280546105fe90611277565b801561064b5780601f106106205761010080835404028352916020019161064b565b820191906000526020600020905b81548152906001019060200180831161062e57829003601f168201915b50505050509080600201805461066090611277565b80601f016020809104026020016040519081016040528092919081815260200182805461068c90611277565b80156106d95780601f106106ae576101008083540402835291602001916106d9565b820191906000526020600020905b8154815290600101906020018083116106bc57829003601f168201915b5050505050908060030180546106ee90611277565b80601f016020809104026020016040519081016040528092919081815260200182805461071a90611277565b80156107675780601f1061073c57610100808354040283529160200191610767565b820191906000526020600020905b81548152906001019060200180831161074a57829003601f168201915b50505050509080600401805461077c90611277565b80601f01602080910402602001604051908101604052809291908181526020018280546107a890611277565b80156107f55780601f106107ca576101008083540402835291602001916107f5565b820191906000526020600020905b8154815290600101906020018083116107d857829003601f168201915b5050505050905085565b6108076108f7565b61081057600080fd5b600073ffffffffffffffffffffffffffffffffffffffff1660008054906101000a900473ffffffffffffffffffffffffffffffffffffffff1673ffffffffffffffffffffffffffffffffffffffff167f8be0079c531659141344cd1fd0a4f28419497f9722a3daafe3b4186f6b6457e060405160405180910390a360008060006101000a81548173ffffffffffffffffffffffffffffffffffffffff021916908373ffffffffffffffffffffffffffffffffffffffff160217905550565b60008060009054906101000a900473ffffffffffffffffffffffffffffffffffffffff16905090565b60008060009054906101000a900473ffffffffffffffffffffffffffffffffffffffff1673ffffffffffffffffffffffffffffffffffffffff163373ffffffffffffffffffffffffffffffffffffffff1614905090565b6109566108f7565b61095f57600080fd5b61096881610a24565b50565b6109736108f7565b61097c57600080fd5b600160405180608001604052808581526020018460ff1681526020018381526020014281525090806001815401808255809150506001900390600052602060002090600402016000909190919091506000820151816000015560208201518160010160006101000a81548160ff021916908360ff1602179055506040820151816002019080519060200190610a12929190610b45565b50606082015181600301555050505050565b600073ffffffffffffffffffffffffffffffffffffffff168173ffffffffffffffffffffffffffffffffffffffff1603610a5d57600080fd5b8073ffffffffffffffffffffffffffffffffffffffff1660008054906101000a900473ffffffffffffffffffffffffffffffffffffffff1673ffffffffffffffffffffffffffffffffffffffff167f8be0079c531659141344cd1fd0a4f28419497f9722a3daafe3b4186f6b6457e060405160405180910390a3806000806101000a81548173ffffffffffffffffffffffffffffffffffffffff021916908373ffffffffffffffffffffffffffffffffffffffff16021790555050565b604051806080016040528060008152602001600060ff16815260200160608152602001600081525090565b828054610b5190611277565b90600052602060002090601f016020900481019282610b735760008555610bba565b82601f10610b8c57805160ff1916838001178555610bba565b82800160010185558215610bba579182015b82811115610bb9578251825591602001919060010190610b9e565b5b509050610bc79190610bcb565b5090565b5b80821115610be4576000816000905550600101610bcc565b5090565b6000604051905090565b600080fd5b600080fd5b6000819050919050565b610c0f81610bfc565b8114610c1a57600080fd5b50565b600081359050610c2c81610c06565b92915050565b600060208284031215610c4857610c47610bf2565b5b6000610c5684828501610c1d565b91505092915050565b610c6881610bfc565b82525050565b600060ff82169050919050565b610c8481610c6e565b82525050565b600081519050919050565b600082825260208201905092915050565b60005b83811015610cc4578082015181840152602081019050610ca9565b83811115610cd3576000848401525b50505050565b6000601f19601f8301169050919050565b6000610cf582610c8a565b610cff8185610c95565b9350610d0f818560208601610ca6565b610d1881610cd9565b840191505092915050565b6000608082019050610d386000830187610c5f565b610d456020830186610c7b565b8181036040830152610d578185610cea565b9050610d666060830184610c5f565b95945050505050565b600081519050919050565b600082825260208201905092915050565b6000819050602082019050919050565b610da481610bfc565b82525050565b610db381610c6e565b82525050565b600082825260208201905092915050565b6000610dd582610c8a565b610ddf8185610db9565b9350610def818560208601610ca6565b610df881610cd9565b840191505092915050565b6000608083016000830151610e1b6000860182610d9b565b506020830151610e2e6020860182610daa565b5060408301518482036040860152610e468282610dca565b9150506060830151610e5b6060860182610d9b565b508091505092915050565b6000610e728383610e03565b905092915050565b6000602082019050919050565b6000610e9282610d6f565b610e9c8185610d7a565b935083602082028501610eae85610d8b565b8060005b85811015610eea5784840389528151610ecb8582610e66565b9450610ed683610e7a565b925060208a01995050600181019050610eb2565b50829750879550505050505092915050565b60006020820190508181036000830152610f168184610e87565b905092915050565b600060a082019050610f336000830188610c5f565b8181036020830152610f458187610cea565b90508181036040830152610f598186610cea565b90508181036060830152610f6d8185610cea565b90508181036080830152610f818184610cea565b90509695505050505050565b600073ffffffffffffffffffffffffffffffffffffffff82169050919050565b6000610fb882610f8d565b9050919050565b610fc881610fad565b82525050565b6000602082019050610fe36000830184610fbf565b92915050565b60008115159050919050565b610ffe81610fe9565b82525050565b60006020820190506110196000830184610ff5565b92915050565b61102881610fad565b811461103357600080fd5b50565b6000813590506110458161101f565b92915050565b60006020828403121561106157611060610bf2565b5b600061106f84828501611036565b91505092915050565b61108181610c6e565b811461108c57600080fd5b50565b60008135905061109e81611078565b92915050565b600080fd5b600080fd5b7f4e487b7100000000000000000000000000000000000000000000000000000000600052604160045260246000fd5b6110e682610cd9565b810181811067ffffffffffffffff82111715611105576111046110ae565b5b80604052505050565b6000611118610be8565b905061112482826110dd565b919050565b600067ffffffffffffffff821115611144576111436110ae565b5b61114d82610cd9565b9050602081019050919050565b82818337600083830152505050565b600061117c61117784611129565b61110e565b905082815260208101848484011115611198576111976110a9565b5b6111a384828561115a565b509392505050565b600082601f8301126111c0576111bf6110a4565b5b81356111d0848260208601611169565b91505092915050565b6000806000606084860312156111f2576111f1610bf2565b5b600061120086828701610c1d565b93505060206112118682870161108f565b925050604084013567ffffffffffffffff81111561123257611231610bf7565b5b61123e868287016111ab565b9150509250925092565b7f4e487b7100000000000000000000000000000000000000000000000000000000600052602260045260246000fd5b6000600282049050600182168061128f57607f821691505b6020821081036112a2576112a1611248565b5b50919050565b7f4e487b7100000000000000000000000000000000000000000000000000000000600052603260045260246000fd5b7f4e487b7100000000000000000000000000000000000000000000000000000000600052601160045260246000fd5b600061131182610bfc565b91507fffffffffffffffffffffffffffffffffffffffffffffffffffffffffffffffff8203611343576113426112d7565b5b60018201905091905056fea2646970667358221220db2ed412f8c93e1522eba40cd87ea11ad5a8aa73c14f2d20c2b5583857c2ed9364736f6c634300080d0033",
  "immutableReferences": {},
  "source": "pragma solidity ^0.8.0;\n\nimport \"./ownable.sol\";\n\ncontract Califications is Ownable {\n  struct Calification {\n    uint256 id_shop;\n    uint8 status;\n    string description;\n    uint256 created_at;\n  }\n\n  struct Shop {\n    uint256 id;\n    string name;\n    string description;\n    string social;\n    string phone;\n  }\n\n  Calification[] public califications;\n  Shop[] public shops;\n\n  function getCalifications() public view returns(Calification[] memory){\n    return califications;\n  }\n\n  function createCalification(uint256 _id_shop, uint8 _status, string memory _description) external onlyOwner {\n    califications.push(Calification(_id_shop, _status, _description, block.timestamp));\n  }\n\n  function getCalificationsByShop(uint256 _id) public view returns(Calification[] memory) {\n    Calification[] memory result = new Calification[](califications.length);\n    uint counter = 0;\n    for (uint i = 0; i < califications.length; i++) {\n      if (_id == califications[i].id_shop) {\n        result[counter] = califications[i];\n        counter++;\n      }\n    }\n\n    return result;\n  }\n\n  \n}",
  "sourcePath": "/home/hayek/proyectos_personales/reputacion_defi/src/contracts/Califications.sol",
  "compiler": {
    "name": "solc",
    "version": "0.8.13+commit.abaa5c0e.Emscripten.clang"
  },
  "schemaVersion": "3.4.4",
  "updatedAt": "2022-04-09T20:00:52.265Z",
  "networkType": "ethereum",
  "devdoc": {
    "kind": "dev",
    "methods": {
      "isOwner()": {
        "returns": {
          "_0": "true if `msg.sender` is the owner of the contract."
        }
      },
      "owner()": {
        "returns": {
          "_0": "the address of the owner."
        }
      },
      "renounceOwnership()": {
        "details": "Allows the current owner to relinquish control of the contract."
      },
      "transferOwnership(address)": {
        "details": "Allows the current owner to transfer control of the contract to a newOwner.",
        "params": {
          "newOwner": "The address to transfer ownership to."
        }
      }
    },
    "version": 1
  },
  "userdoc": {
    "kind": "user",
    "methods": {
      "renounceOwnership()": {
        "notice": "Renouncing to ownership will leave the contract without an owner. It will not be possible to call the functions with the `onlyOwner` modifier anymore."
      }
    },
    "version": 1
  }
}