{
  "contractName": "Califications",
  "abi": [
    {
      "anonymous": false,
      "inputs": [
        {
          "indexed": true,
          "internalType": "address",
          "name": "previousOwner",
          "type": "address"
        },
        {
          "indexed": true,
          "internalType": "address",
          "name": "newOwner",
          "type": "address"
        }
      ],
      "name": "OwnershipTransferred",
      "type": "event"
    },
    {
      "inputs": [
        {
          "internalType": "uint256",
          "name": "",
          "type": "uint256"
        }
      ],
      "name": "califications",
      "outputs": [
        {
          "internalType": "uint256",
          "name": "id_shop",
          "type": "uint256"
        },
        {
          "internalType": "uint8",
          "name": "status",
          "type": "uint8"
        },
        {
          "internalType": "string",
          "name": "description",
          "type": "string"
        },
        {
          "internalType": "uint256",
          "name": "created_at",
          "type": "uint256"
        }
      ],
      "stateMutability": "view",
      "type": "function",
      "constant": true
    },
    {
      "inputs": [],
      "name": "isOwner",
      "outputs": [
        {
          "internalType": "bool",
          "name": "",
          "type": "bool"
        }
      ],
      "stateMutability": "view",
      "type": "function",
      "constant": true
    },
    {
      "inputs": [],
      "name": "owner",
      "outputs": [
        {
          "internalType": "address",
          "name": "",
          "type": "address"
        }
      ],
      "stateMutability": "view",
      "type": "function",
      "constant": true
    },
    {
      "inputs": [],
      "name": "renounceOwnership",
      "outputs": [],
      "stateMutability": "nonpayable",
      "type": "function"
    },
    {
      "inputs": [
        {
          "internalType": "uint256",
          "name": "",
          "type": "uint256"
        }
      ],
      "name": "shops",
      "outputs": [
        {
          "internalType": "uint256",
          "name": "id",
          "type": "uint256"
        },
        {
          "internalType": "string",
          "name": "name",
          "type": "string"
        },
        {
          "internalType": "string",
          "name": "description",
          "type": "string"
        },
        {
          "internalType": "string",
          "name": "social",
          "type": "string"
        },
        {
          "internalType": "string",
          "name": "phone",
          "type": "string"
        }
      ],
      "stateMutability": "view",
      "type": "function",
      "constant": true
    },
    {
      "inputs": [
        {
          "internalType": "address",
          "name": "newOwner",
          "type": "address"
        }
      ],
      "name": "transferOwnership",
      "outputs": [],
      "stateMutability": "nonpayable",
      "type": "function"
    },
    {
      "inputs": [],
      "name": "getCalifications",
      "outputs": [
        {
          "components": [
            {
              "internalType": "uint256",
              "name": "id_shop",
              "type": "uint256"
            },
            {
              "internalType": "uint8",
              "name": "status",
              "type": "uint8"
            },
            {
              "internalType": "string",
              "name": "description",
              "type": "string"
            },
            {
              "internalType": "uint256",
              "name": "created_at",
              "type": "uint256"
            }
          ],
          "internalType": "struct Califications.Calification[]",
          "name": "",
          "type": "tuple[]"
        }
      ],
      "stateMutability": "view",
      "type": "function",
      "constant": true
    },
    {
      "inputs": [],
      "name": "getShops",
      "outputs": [
        {
          "components": [
            {
              "internalType": "uint256",
              "name": "id",
              "type": "uint256"
            },
            {
              "internalType": "string",
              "name": "name",
              "type": "string"
            },
            {
              "internalType": "string",
              "name": "description",
              "type": "string"
            },
            {
              "internalType": "string",
              "name": "social",
              "type": "string"
            },
            {
              "internalType": "string",
              "name": "phone",
              "type": "string"
            }
          ],
          "internalType": "struct Califications.Shop[]",
          "name": "",
          "type": "tuple[]"
        }
      ],
      "stateMutability": "view",
      "type": "function",
      "constant": true
    },
    {
      "inputs": [
        {
          "internalType": "uint256",
          "name": "_id_shop",
          "type": "uint256"
        },
        {
          "internalType": "uint8",
          "name": "_status",
          "type": "uint8"
        },
        {
          "internalType": "string",
          "name": "_description",
          "type": "string"
        }
      ],
      "name": "createCalification",
      "outputs": [],
      "stateMutability": "nonpayable",
      "type": "function"
    },
    {
      "inputs": [
        {
          "internalType": "uint256",
          "name": "_id",
          "type": "uint256"
        },
        {
          "internalType": "string",
          "name": "_name",
          "type": "string"
        },
        {
          "internalType": "string",
          "name": "_description",
          "type": "string"
        },
        {
          "internalType": "string",
          "name": "_social",
          "type": "string"
        },
        {
          "internalType": "string",
          "name": "_phone",
          "type": "string"
        }
      ],
      "name": "createShop",
      "outputs": [],
      "stateMutability": "nonpayable",
      "type": "function"
    },
    {
      "inputs": [
        {
          "internalType": "uint256",
          "name": "_id",
          "type": "uint256"
        }
      ],
      "name": "getCalificationsByShop",
      "outputs": [
        {
          "components": [
            {
              "internalType": "uint256",
              "name": "id_shop",
              "type": "uint256"
            },
            {
              "internalType": "uint8",
              "name": "status",
              "type": "uint8"
            },
            {
              "internalType": "string",
              "name": "description",
              "type": "string"
            },
            {
              "internalType": "uint256",
              "name": "created_at",
              "type": "uint256"
            }
          ],
          "internalType": "struct Califications.Calification[]",
          "name": "",
          "type": "tuple[]"
        }
      ],
      "stateMutability": "view",
      "type": "function",
      "constant": true
    }
  ],
  "bytecode": "0x608060405234801561001057600080fd5b50336000806101000a81548173ffffffffffffffffffffffffffffffffffffffff021916908373ffffffffffffffffffffffffffffffffffffffff16021790555060008054906101000a900473ffffffffffffffffffffffffffffffffffffffff1673ffffffffffffffffffffffffffffffffffffffff16600073ffffffffffffffffffffffffffffffffffffffff167f8be0079c531659141344cd1fd0a4f28419497f9722a3daafe3b4186f6b6457e060405160405180910390a36119c9806100db6000396000f3fe608060405234801561001057600080fd5b50600436106100a95760003560e01c8063715018a611610071578063715018a6146101815780638da5cb5b1461018b5780638f32d59b146101a9578063d436b178146101c7578063f2fde38b146101e3578063fb955ee4146101ff576100a9565b8063391ed14b146100ae5780634e06fdad146100e1578063570b98e2146100ff57806369d3a0f21461011d578063713aca741461014d575b600080fd5b6100c860048036038101906100c3919061101d565b61021b565b6040516100d8949392919061110e565b60405180910390f35b6100e96102f0565b6040516100f691906112e7565b60405180910390f35b610107610412565b6040516101149190611456565b60405180910390f35b6101376004803603810190610132919061101d565b6106c3565b60405161014491906112e7565b60405180910390f35b6101676004803603810190610162919061101d565b61089a565b604051610178959493929190611478565b60405180910390f35b610189610b00565b005b610193610bcf565b6040516101a09190611528565b60405180910390f35b6101b1610bf8565b6040516101be919061155e565b60405180910390f35b6101e160048036038101906101dc91906116ae565b610c4f565b005b6101fd60048036038101906101f891906117c5565b610d39565b005b6102196004803603810190610214919061181e565b610d56565b005b6001818154811061022b57600080fd5b90600052602060002090600402016000915090508060000154908060010160009054906101000a900460ff1690806002018054610267906118bc565b80601f0160208091040260200160405190810160405280929190818152602001828054610293906118bc565b80156102e05780601f106102b5576101008083540402835291602001916102e0565b820191906000526020600020905b8154815290600101906020018083116102c357829003601f168201915b5050505050908060030154905084565b60606001805480602002602001604051908101604052809291908181526020016000905b828210156104095783829060005260206000209060040201604051806080016040529081600082015481526020016001820160009054906101000a900460ff1660ff1660ff16815260200160028201805461036e906118bc565b80601f016020809104026020016040519081016040528092919081815260200182805461039a906118bc565b80156103e75780601f106103bc576101008083540402835291602001916103e7565b820191906000526020600020905b8154815290600101906020018083116103ca57829003601f168201915b5050505050815260200160038201548152505081526020019060010190610314565b50505050905090565b60606002805480602002602001604051908101604052809291908181526020016000905b828210156106ba57838290600052602060002090600502016040518060a001604052908160008201548152602001600182018054610473906118bc565b80601f016020809104026020016040519081016040528092919081815260200182805461049f906118bc565b80156104ec5780601f106104c1576101008083540402835291602001916104ec565b820191906000526020600020905b8154815290600101906020018083116104cf57829003601f168201915b50505050508152602001600282018054610505906118bc565b80601f0160208091040260200160405190810160405280929190818152602001828054610531906118bc565b801561057e5780601f106105535761010080835404028352916020019161057e565b820191906000526020600020905b81548152906001019060200180831161056157829003601f168201915b50505050508152602001600382018054610597906118bc565b80601f01602080910402602001604051908101604052809291908181526020018280546105c3906118bc565b80156106105780601f106105e557610100808354040283529160200191610610565b820191906000526020600020905b8154815290600101906020018083116105f357829003601f168201915b50505050508152602001600482018054610629906118bc565b80601f0160208091040260200160405190810160405280929190818152602001828054610655906118bc565b80156106a25780601f10610677576101008083540402835291602001916106a2565b820191906000526020600020905b81548152906001019060200180831161068557829003601f168201915b50505050508152505081526020019060010190610436565b50505050905090565b6060600060018054905067ffffffffffffffff8111156106e6576106e5611583565b5b60405190808252806020026020018201604052801561071f57816020015b61070c610f05565b8152602001906001900390816107045790505b5090506000805b60018054905081101561088f5760018181548110610747576107466118ed565b5b906000526020600020906004020160000154850361087c5760018181548110610773576107726118ed565b5b9060005260206000209060040201604051806080016040529081600082015481526020016001820160009054906101000a900460ff1660ff1660ff1681526020016002820180546107c3906118bc565b80601f01602080910402602001604051908101604052809291908181526020018280546107ef906118bc565b801561083c5780601f106108115761010080835404028352916020019161083c565b820191906000526020600020905b81548152906001019060200180831161081f57829003601f168201915b50505050508152602001600382015481525050838381518110610862576108616118ed565b5b602002602001018190525081806108789061194b565b9250505b80806108879061194b565b915050610726565b508192505050919050565b600281815481106108aa57600080fd5b90600052602060002090600502016000915090508060000154908060010180546108d3906118bc565b80601f01602080910402602001604051908101604052809291908181526020018280546108ff906118bc565b801561094c5780601f106109215761010080835404028352916020019161094c565b820191906000526020600020905b81548152906001019060200180831161092f57829003601f168201915b505050505090806002018054610961906118bc565b80601f016020809104026020016040519081016040528092919081815260200182805461098d906118bc565b80156109da5780601f106109af576101008083540402835291602001916109da565b820191906000526020600020905b8154815290600101906020018083116109bd57829003601f168201915b5050505050908060030180546109ef906118bc565b80601f0160208091040260200160405190810160405280929190818152602001828054610a1b906118bc565b8015610a685780601f10610a3d57610100808354040283529160200191610a68565b820191906000526020600020905b815481529060010190602001808311610a4b57829003601f168201915b505050505090806004018054610a7d906118bc565b80601f0160208091040260200160405190810160405280929190818152602001828054610aa9906118bc565b8015610af65780601f10610acb57610100808354040283529160200191610af6565b820191906000526020600020905b815481529060010190602001808311610ad957829003601f168201915b5050505050905085565b610b08610bf8565b610b1157600080fd5b600073ffffffffffffffffffffffffffffffffffffffff1660008054906101000a900473ffffffffffffffffffffffffffffffffffffffff1673ffffffffffffffffffffffffffffffffffffffff167f8be0079c531659141344cd1fd0a4f28419497f9722a3daafe3b4186f6b6457e060405160405180910390a360008060006101000a81548173ffffffffffffffffffffffffffffffffffffffff021916908373ffffffffffffffffffffffffffffffffffffffff160217905550565b60008060009054906101000a900473ffffffffffffffffffffffffffffffffffffffff16905090565b60008060009054906101000a900473ffffffffffffffffffffffffffffffffffffffff1673ffffffffffffffffffffffffffffffffffffffff163373ffffffffffffffffffffffffffffffffffffffff1614905090565b610c57610bf8565b610c6057600080fd5b60026040518060a00160405280878152602001868152602001858152602001848152602001838152509080600181540180825580915050600190039060005260206000209060050201600090919091909150600082015181600001556020820151816001019080519060200190610cd8929190610f30565b506040820151816002019080519060200190610cf5929190610f30565b506060820151816003019080519060200190610d12929190610f30565b506080820151816004019080519060200190610d2f929190610f30565b5050505050505050565b610d41610bf8565b610d4a57600080fd5b610d5381610e0f565b50565b610d5e610bf8565b610d6757600080fd5b600160405180608001604052808581526020018460ff1681526020018381526020014281525090806001815401808255809150506001900390600052602060002090600402016000909190919091506000820151816000015560208201518160010160006101000a81548160ff021916908360ff1602179055506040820151816002019080519060200190610dfd929190610f30565b50606082015181600301555050505050565b600073ffffffffffffffffffffffffffffffffffffffff168173ffffffffffffffffffffffffffffffffffffffff1603610e4857600080fd5b8073ffffffffffffffffffffffffffffffffffffffff1660008054906101000a900473ffffffffffffffffffffffffffffffffffffffff1673ffffffffffffffffffffffffffffffffffffffff167f8be0079c531659141344cd1fd0a4f28419497f9722a3daafe3b4186f6b6457e060405160405180910390a3806000806101000a81548173ffffffffffffffffffffffffffffffffffffffff021916908373ffffffffffffffffffffffffffffffffffffffff16021790555050565b604051806080016040528060008152602001600060ff16815260200160608152602001600081525090565b828054610f3c906118bc565b90600052602060002090601f016020900481019282610f5e5760008555610fa5565b82601f10610f7757805160ff1916838001178555610fa5565b82800160010185558215610fa5579182015b82811115610fa4578251825591602001919060010190610f89565b5b509050610fb29190610fb6565b5090565b5b80821115610fcf576000816000905550600101610fb7565b5090565b6000604051905090565b600080fd5b600080fd5b6000819050919050565b610ffa81610fe7565b811461100557600080fd5b50565b60008135905061101781610ff1565b92915050565b60006020828403121561103357611032610fdd565b5b600061104184828501611008565b91505092915050565b61105381610fe7565b82525050565b600060ff82169050919050565b61106f81611059565b82525050565b600081519050919050565b600082825260208201905092915050565b60005b838110156110af578082015181840152602081019050611094565b838111156110be576000848401525b50505050565b6000601f19601f8301169050919050565b60006110e082611075565b6110ea8185611080565b93506110fa818560208601611091565b611103816110c4565b840191505092915050565b6000608082019050611123600083018761104a565b6111306020830186611066565b818103604083015261114281856110d5565b9050611151606083018461104a565b95945050505050565b600081519050919050565b600082825260208201905092915050565b6000819050602082019050919050565b61118f81610fe7565b82525050565b61119e81611059565b82525050565b600082825260208201905092915050565b60006111c082611075565b6111ca81856111a4565b93506111da818560208601611091565b6111e3816110c4565b840191505092915050565b60006080830160008301516112066000860182611186565b5060208301516112196020860182611195565b506040830151848203604086015261123182826111b5565b91505060608301516112466060860182611186565b508091505092915050565b600061125d83836111ee565b905092915050565b6000602082019050919050565b600061127d8261115a565b6112878185611165565b93508360208202850161129985611176565b8060005b858110156112d557848403895281516112b68582611251565b94506112c183611265565b925060208a0199505060018101905061129d565b50829750879550505050505092915050565b600060208201905081810360008301526113018184611272565b905092915050565b600081519050919050565b600082825260208201905092915050565b6000819050602082019050919050565b600060a08301600083015161134d6000860182611186565b506020830151848203602086015261136582826111b5565b9150506040830151848203604086015261137f82826111b5565b9150506060830151848203606086015261139982826111b5565b915050608083015184820360808601526113b382826111b5565b9150508091505092915050565b60006113cc8383611335565b905092915050565b6000602082019050919050565b60006113ec82611309565b6113f68185611314565b93508360208202850161140885611325565b8060005b85811015611444578484038952815161142585826113c0565b9450611430836113d4565b925060208a0199505060018101905061140c565b50829750879550505050505092915050565b6000602082019050818103600083015261147081846113e1565b905092915050565b600060a08201905061148d600083018861104a565b818103602083015261149f81876110d5565b905081810360408301526114b381866110d5565b905081810360608301526114c781856110d5565b905081810360808301526114db81846110d5565b90509695505050505050565b600073ffffffffffffffffffffffffffffffffffffffff82169050919050565b6000611512826114e7565b9050919050565b61152281611507565b82525050565b600060208201905061153d6000830184611519565b92915050565b60008115159050919050565b61155881611543565b82525050565b6000602082019050611573600083018461154f565b92915050565b600080fd5b600080fd5b7f4e487b7100000000000000000000000000000000000000000000000000000000600052604160045260246000fd5b6115bb826110c4565b810181811067ffffffffffffffff821117156115da576115d9611583565b5b80604052505050565b60006115ed610fd3565b90506115f982826115b2565b919050565b600067ffffffffffffffff82111561161957611618611583565b5b611622826110c4565b9050602081019050919050565b82818337600083830152505050565b600061165161164c846115fe565b6115e3565b90508281526020810184848401111561166d5761166c61157e565b5b61167884828561162f565b509392505050565b600082601f83011261169557611694611579565b5b81356116a584826020860161163e565b91505092915050565b600080600080600060a086880312156116ca576116c9610fdd565b5b60006116d888828901611008565b955050602086013567ffffffffffffffff8111156116f9576116f8610fe2565b5b61170588828901611680565b945050604086013567ffffffffffffffff81111561172657611725610fe2565b5b61173288828901611680565b935050606086013567ffffffffffffffff81111561175357611752610fe2565b5b61175f88828901611680565b925050608086013567ffffffffffffffff8111156117805761177f610fe2565b5b61178c88828901611680565b9150509295509295909350565b6117a281611507565b81146117ad57600080fd5b50565b6000813590506117bf81611799565b92915050565b6000602082840312156117db576117da610fdd565b5b60006117e9848285016117b0565b91505092915050565b6117fb81611059565b811461180657600080fd5b50565b600081359050611818816117f2565b92915050565b60008060006060848603121561183757611836610fdd565b5b600061184586828701611008565b935050602061185686828701611809565b925050604084013567ffffffffffffffff81111561187757611876610fe2565b5b61188386828701611680565b9150509250925092565b7f4e487b7100000000000000000000000000000000000000000000000000000000600052602260045260246000fd5b600060028204905060018216806118d457607f821691505b6020821081036118e7576118e661188d565b5b50919050565b7f4e487b7100000000000000000000000000000000000000000000000000000000600052603260045260246000fd5b7f4e487b7100000000000000000000000000000000000000000000000000000000600052601160045260246000fd5b600061195682610fe7565b91507fffffffffffffffffffffffffffffffffffffffffffffffffffffffffffffffff82036119885761198761191c565b5b60018201905091905056fea2646970667358221220542390afe7559b86e23da48c04f01e3d2594fead87aa365d58fea2e37b0a403764736f6c634300080d0033",
  "immutableReferences": {},
  "source": "pragma solidity ^0.8.0;\n\nimport \"./ownable.sol\";\n\ncontract Califications is Ownable {\n  struct Calification {\n    uint256 id_shop;\n    uint8 status;\n    string description;\n    uint256 created_at;\n  }\n\n  struct Shop {\n    uint256 id;\n    string name;\n    string description;\n    string social;\n    string phone;\n  }\n\n  Calification[] public califications;\n  Shop[] public shops;\n\n  function getCalifications() public view returns(Calification[] memory){\n    return califications;\n  }\n\n  function getShops() public view returns(Shop[] memory){\n    return shops;\n  }\n\n  function createCalification(uint256 _id_shop, uint8 _status, string memory _description) external onlyOwner {\n    califications.push(Calification(_id_shop, _status, _description, block.timestamp));\n  }\n\n  function createShop(uint256 _id, string memory _name, string memory _description, string memory _social, string memory _phone) external onlyOwner {\n    shops.push(Shop(_id, _name, _description, _social, _phone));\n  }\n\n  \n\n  function getCalificationsByShop(uint256 _id) public view returns(Calification[] memory) {\n    Calification[] memory result = new Calification[](califications.length);\n    uint counter = 0;\n    for (uint i = 0; i < califications.length; i++) {\n      if (_id == califications[i].id_shop) {\n        result[counter] = califications[i];\n        counter++;\n      }\n    }\n\n    return result;\n  }\n\n  \n}",
  "sourcePath": "/home/hayek/proyectos_personales/marketplace_defi/src/contracts/Califications.sol",
  "compiler": {
    "name": "solc",
    "version": "0.8.13+commit.abaa5c0e.Emscripten.clang"
  },
  "schemaVersion": "3.4.4",
  "updatedAt": "2022-07-02T02:39:41.823Z",
  "networkType": "ethereum",
  "devdoc": {
    "kind": "dev",
    "methods": {
      "isOwner()": {
        "returns": {
          "_0": "true if `msg.sender` is the owner of the contract."
        }
      },
      "owner()": {
        "returns": {
          "_0": "the address of the owner."
        }
      },
      "renounceOwnership()": {
        "details": "Allows the current owner to relinquish control of the contract."
      },
      "transferOwnership(address)": {
        "details": "Allows the current owner to transfer control of the contract to a newOwner.",
        "params": {
          "newOwner": "The address to transfer ownership to."
        }
      }
    },
    "version": 1
  },
  "userdoc": {
    "kind": "user",
    "methods": {
      "renounceOwnership()": {
        "notice": "Renouncing to ownership will leave the contract without an owner. It will not be possible to call the functions with the `onlyOwner` modifier anymore."
      }
    },
    "version": 1
  }
}